{
  "contractName": "MarriageCertificateIssuer",
  "abi": [
    {
      "constant": true,
      "inputs": [
        {
          "name": "",
          "type": "uint256"
        }
      ],
      "name": "certificates",
      "outputs": [
        {
          "name": "bride",
          "type": "bytes32"
        },
        {
          "name": "groom",
          "type": "bytes32"
        }
      ],
      "payable": false,
      "stateMutability": "view",
      "type": "function"
    },
    {
      "constant": false,
      "inputs": [],
      "name": "renounceOwnership",
      "outputs": [],
      "payable": false,
      "stateMutability": "nonpayable",
      "type": "function"
    },
    {
      "constant": true,
      "inputs": [],
      "name": "owner",
      "outputs": [
        {
          "name": "",
          "type": "address"
        }
      ],
      "payable": false,
      "stateMutability": "view",
      "type": "function"
    },
    {
      "constant": true,
      "inputs": [],
      "name": "isOwner",
      "outputs": [
        {
          "name": "",
          "type": "bool"
        }
      ],
      "payable": false,
      "stateMutability": "view",
      "type": "function"
    },
    {
      "constant": true,
      "inputs": [],
      "name": "FEE",
      "outputs": [
        {
          "name": "",
          "type": "uint256"
        }
      ],
      "payable": false,
      "stateMutability": "view",
      "type": "function"
    },
    {
      "constant": false,
      "inputs": [
        {
          "name": "newOwner",
          "type": "address"
        }
      ],
      "name": "transferOwnership",
      "outputs": [],
      "payable": false,
      "stateMutability": "nonpayable",
      "type": "function"
    },
    {
      "anonymous": false,
      "inputs": [
        {
          "indexed": true,
          "name": "certificateID",
          "type": "uint256"
        },
        {
          "indexed": false,
          "name": "bride",
          "type": "bytes32"
        },
        {
          "indexed": false,
          "name": "groom",
          "type": "bytes32"
        }
      ],
      "name": "Issued",
      "type": "event"
    },
    {
      "anonymous": false,
      "inputs": [
        {
          "indexed": true,
          "name": "previousOwner",
          "type": "address"
        },
        {
          "indexed": true,
          "name": "newOwner",
          "type": "address"
        }
      ],
      "name": "OwnershipTransferred",
      "type": "event"
    },
    {
      "constant": false,
      "inputs": [
        {
          "name": "_bride",
          "type": "bytes32"
        },
        {
          "name": "_groom",
          "type": "bytes32"
        }
      ],
      "name": "issueCertificate",
      "outputs": [
        {
          "name": "",
          "type": "uint256"
        }
      ],
      "payable": true,
      "stateMutability": "payable",
      "type": "function"
    },
    {
      "constant": false,
      "inputs": [
        {
          "name": "payee",
          "type": "address"
        }
      ],
      "name": "withdrawFee",
      "outputs": [],
      "payable": false,
      "stateMutability": "nonpayable",
      "type": "function"
    },
    {
      "constant": true,
      "inputs": [],
      "name": "depositedFee",
      "outputs": [
        {
          "name": "",
          "type": "uint256"
        }
      ],
      "payable": false,
      "stateMutability": "view",
      "type": "function"
    }
  ],
  "bytecode": "0x608060405266470de4df8200006001556301312d0060035561002e6100ee640100000000026401000000009004565b6000806101000a81548173ffffffffffffffffffffffffffffffffffffffff021916908373ffffffffffffffffffffffffffffffffffffffff1602179055506000809054906101000a900473ffffffffffffffffffffffffffffffffffffffff1673ffffffffffffffffffffffffffffffffffffffff16600073ffffffffffffffffffffffffffffffffffffffff167f8be0079c531659141344cd1fd0a4f28419497f9722a3daafe3b4186f6b6457e060405160405180910390a36100f6565b600033905090565b610a51806101056000396000f3fe608060405260043610610099576000357c0100000000000000000000000000000000000000000000000000000000900463ffffffff1680631ac3ddeb1461009e57806357bcf883146100ef578063663b3e221461013b578063715018a6146101915780638da5cb5b146101a85780638f32d59b146101ff578063ac6b43931461022e578063c57981b514610259578063f2fde38b14610284575b600080fd5b3480156100aa57600080fd5b506100ed600480360360208110156100c157600080fd5b81019080803573ffffffffffffffffffffffffffffffffffffffff1690602001909291905050506102d5565b005b6101256004803603604081101561010557600080fd5b8101908080359060200190929190803590602001909291905050506103ab565b6040518082815260200191505060405180910390f35b34801561014757600080fd5b506101746004803603602081101561015e57600080fd5b8101908080359060200190929190505050610501565b604051808381526020018281526020019250505060405180910390f35b34801561019d57600080fd5b506101a6610534565b005b3480156101b457600080fd5b506101bd61066f565b604051808273ffffffffffffffffffffffffffffffffffffffff1673ffffffffffffffffffffffffffffffffffffffff16815260200191505060405180910390f35b34801561020b57600080fd5b50610214610698565b604051808215151515815260200191505060405180910390f35b34801561023a57600080fd5b506102436106f6565b6040518082815260200191505060405180910390f35b34801561026557600080fd5b5061026e61077c565b6040518082815260200191505060405180910390f35b34801561029057600080fd5b506102d3600480360360208110156102a757600080fd5b81019080803573ffffffffffffffffffffffffffffffffffffffff169060200190929190505050610782565b005b6102dd610698565b1515610351576040517f08c379a00000000000000000000000000000000000000000000000000000000081526004018080602001828103825260208152602001807f4f776e61626c653a2063616c6c6572206973206e6f7420746865206f776e657281525060200191505060405180910390fd5b6000600254905060006002819055508173ffffffffffffffffffffffffffffffffffffffff166108fc829081150290604051600060405180830381858888f193505050501580156103a6573d6000803e3d6000fd5b505050565b600060015434141515610426576040517f08c379a00000000000000000000000000000000000000000000000000000000081526004018080602001828103825260198152602001807f53686f756c642070617920657861637420302e3032204554480000000000000081525060200191505060405180910390fd5b60006104946003546004604080519081016040528088815260200187815250908060018154018082558091505090600182039060005260206000209060020201600090919290919091506000820151816000015560208201518160010155505061080a90919063ffffffff16565b905060003490506104b08160025461080a90919063ffffffff16565b600281905550817f4fd8f6be195ba2870d47af2c8b625bf5d64911bc399223db6a330f1ab4cd3ddd8686604051808381526020018281526020019250505060405180910390a2819250505092915050565b60048181548110151561051057fe5b90600052602060002090600202016000915090508060000154908060010154905082565b61053c610698565b15156105b0576040517f08c379a00000000000000000000000000000000000000000000000000000000081526004018080602001828103825260208152602001807f4f776e61626c653a2063616c6c6572206973206e6f7420746865206f776e657281525060200191505060405180910390fd5b600073ffffffffffffffffffffffffffffffffffffffff166000809054906101000a900473ffffffffffffffffffffffffffffffffffffffff1673ffffffffffffffffffffffffffffffffffffffff167f8be0079c531659141344cd1fd0a4f28419497f9722a3daafe3b4186f6b6457e060405160405180910390a360008060006101000a81548173ffffffffffffffffffffffffffffffffffffffff021916908373ffffffffffffffffffffffffffffffffffffffff160217905550565b60008060009054906101000a900473ffffffffffffffffffffffffffffffffffffffff16905090565b60008060009054906101000a900473ffffffffffffffffffffffffffffffffffffffff1673ffffffffffffffffffffffffffffffffffffffff166106da610894565b73ffffffffffffffffffffffffffffffffffffffff1614905090565b6000610700610698565b1515610774576040517f08c379a00000000000000000000000000000000000000000000000000000000081526004018080602001828103825260208152602001807f4f776e61626c653a2063616c6c6572206973206e6f7420746865206f776e657281525060200191505060405180910390fd5b600254905090565b60015481565b61078a610698565b15156107fe576040517f08c379a00000000000000000000000000000000000000000000000000000000081526004018080602001828103825260208152602001807f4f776e61626c653a2063616c6c6572206973206e6f7420746865206f776e657281525060200191505060405180910390fd5b6108078161089c565b50565b600080828401905083811015151561088a576040517f08c379a000000000000000000000000000000000000000000000000000000000815260040180806020018281038252601b8152602001807f536166654d6174683a206164646974696f6e206f766572666c6f77000000000081525060200191505060405180910390fd5b8091505092915050565b600033905090565b600073ffffffffffffffffffffffffffffffffffffffff168173ffffffffffffffffffffffffffffffffffffffff1614151515610967576040517f08c379a00000000000000000000000000000000000000000000000000000000081526004018080602001828103825260268152602001807f4f776e61626c653a206e6577206f776e657220697320746865207a65726f206181526020017f646472657373000000000000000000000000000000000000000000000000000081525060400191505060405180910390fd5b8073ffffffffffffffffffffffffffffffffffffffff166000809054906101000a900473ffffffffffffffffffffffffffffffffffffffff1673ffffffffffffffffffffffffffffffffffffffff167f8be0079c531659141344cd1fd0a4f28419497f9722a3daafe3b4186f6b6457e060405160405180910390a3806000806101000a81548173ffffffffffffffffffffffffffffffffffffffff021916908373ffffffffffffffffffffffffffffffffffffffff1602179055505056fea165627a7a72305820570ec7baa1f54e7e04d39cde046b8c9f9ce26f00f38abab3b4a51c24aafcd3040029",
  "source": "pragma solidity 0.5.0;\n\nimport '@openzeppelin/contracts/ownership/Ownable.sol';\nimport '@openzeppelin/contracts/math/SafeMath.sol';\n\n/**\n * @title MarriageCertificateIssuer\n * @dev Issue marriage certificate.\n * Don't issue as ERC720 for saving gas cost purpose. We don't assume to trasfer token\n */\ncontract MarriageCertificateIssuer is Ownable {\n    using SafeMath for uint256;\n\n    uint256 public FEE = 20000000000000000;\n    uint256 private deposits;\n    uint256 private prefix = 20000000;\n\n    struct Certificate {\n        bytes32 bride;\n        bytes32 groom;\n    }\n\n    // Certificate ID range is 20000001 to 4294967295\n    Certificate[] public certificates;\n\n    /**\n     * @dev Emitted when certificate issued\n     */\n    event Issued (uint256 indexed certificateID, bytes32 bride, bytes32 groom);\n\n    /**\n     * @dev Reverts if fee is not same as FEE\n     */\n    modifier confirmFee() {\n        require(msg.value == FEE, \"Should pay exact 0.02 ETH\");\n        _;\n    }\n\n    /**\n     * @dev Issue marriage certificate\n     * @param _bride One persono name got married\n     * @param _groom The other persono name got married\n     */\n    function issueCertificate(bytes32 _bride, bytes32 _groom) public confirmFee payable returns (uint256) {\n\n        uint256 certificateID = certificates.push(Certificate({\n            bride: _bride,\n            groom: _groom\n        })).add(prefix);\n\n        uint256 amount = msg.value;\n        deposits = deposits.add(amount);\n\n        emit Issued(certificateID, _bride, _groom);\n\n        return certificateID;\n    }\n\n    /**\n     * @dev Withdraw accumulated fee by owner\n     */\n    function withdrawFee(address payable payee) public onlyOwner {\n        uint256 payment = deposits;\n        deposits = 0;\n        payee.transfer(payment);\n    }\n\n    /**\n     * @dev See accumulated fee by owner\n     */\n    function depositedFee() public view onlyOwner returns (uint256) {\n        return deposits;\n    }\n}\n",
  "sourcePath": "/root/nodeworkspace/truffle/marriage-certificate-dapp/contracts/MarriageCertificateIssuer.sol",
  "compiler": {
    "name": "solc",
    "version": "0.5.0+commit.1d4f565a.Emscripten.clang"
  },
  "schemaVersion": "3.0.19",
  "updatedAt": "2020-01-01T08:40:19.609Z",
  "networkType": "ethereum",
  "devdoc": {
    "details": "Issue marriage certificate. Don't issue as ERC720 for saving gas cost purpose. We don't assume to trasfer token",
    "methods": {
      "depositedFee()": {
        "details": "See accumulated fee by owner"
      },
      "isOwner()": {
        "details": "Returns true if the caller is the current owner."
      },
      "issueCertificate(bytes32,bytes32)": {
        "details": "Issue marriage certificate",
        "params": {
          "_bride": "One persono name got married",
          "_groom": "The other persono name got married"
        }
      },
      "owner()": {
        "details": "Returns the address of the current owner."
      },
      "renounceOwnership()": {
        "details": "Leaves the contract without owner. It will not be possible to call `onlyOwner` functions anymore. Can only be called by the current owner.     * NOTE: Renouncing ownership will leave the contract without an owner, thereby removing any functionality that is only available to the owner."
      },
      "transferOwnership(address)": {
        "details": "Transfers ownership of the contract to a new account (`newOwner`). Can only be called by the current owner."
      },
      "withdrawFee(address)": {
        "details": "Withdraw accumulated fee by owner"
      }
    },
    "title": "MarriageCertificateIssuer"
  },
  "userdoc": {
    "methods": {}
  }
}